:100000000C942A000C943F000C943F000C943F0089
:100010000C943F000C943F000C943F000C943F0064
:100020000C943F000C943F000C943F000C943F0054
:100030000C943F000C943F000C943F000C943F0044
:100040000C943F000C943F000C943F000C943F0034
:100050000C943F0011241FBECFE5D8E0DEBFCDBF1A
:1000600010E0A0E6B0E0E0E7FAE202C005900D92F1
:10007000A23BB107D9F70E94D1130C9436150C940A
:100080000000EF92FF920F931F937B018C0120E001
:1000900030E040E05FE40E94410388238CF0C80117
:1000A000B70120E030E040E05FE40E94B9010E9427
:1000B000A1039B01AC01205030404040504806C095
:1000C000C801B7010E94A1039B01AC01B901CA019B
:1000D0001F910F91FF90EF900895A0E0B0E0E3E74B
:1000E000F0E00C94FF14DC012B01FA019C9192309A
:1000F00008F439C1EB018881823008F433C19430AF
:1001000069F4843009F02FC111969C91119789816F
:10011000981709F428C1A6EAB0E025C1843009F493
:1001200021C18230A9F4923009F01DC19A01AD01BC
:1001300088E0EA010990AE01E90109929E0181502F
:10014000C1F7E201898111969C918923818308C1BD
:10015000923009F407C112962D903C901397EB0151
:100160008A819B811496AD90BD90CD90DC901797BD
:10017000EC80FD800E811F819101281B390BB90194
:1001800037FF04C066277727621B730B6032710547
:100190000CF061C0121613066CF537014801062EEB
:1001A00004C096948794779467940A94D2F721E0D8
:1001B00030E040E050E004C0220F331F441F551FC1
:1001C0006A95D2F721503040404050402E213F21C7
:1001D00040235123211531054105510521F021E02E
:1001E00030E040E050E079018A01E628F72808294C
:1001F00019293CC0232BD1F1260E371E35014601AB
:10020000062E04C096948794779467940A94D2F744
:1002100021E030E040E050E004C0220F331F441FD3
:10022000551F6A95D2F721503040404050402A2156
:100230003B214C215D21211531054105510521F05E
:1002400021E030E040E050E059016A01A628B728DB
:10025000C828D9280BC0821593052CF01C01AA24AC
:10026000BB24650103C0EE24FF24870111969C91F5
:10027000D20111968C91981709F445C0992339F051
:10028000A80197012A193B094C095D0906C0A6017E
:1002900095012E193F09400B510B57FD08C01182E3
:1002A0003382228224833583468357831DC081E0B5
:1002B00081833382228288279927DC01821B930B5A
:1002C000A40BB50B84839583A683B7830DC0220F3F
:1002D000331F441F551F24833583468357838281F0
:1002E000938101979383828324813581468157814D
:1002F000DA01C9010197A109B1098F5F9F4FAF4F83
:10030000BF4328F30BC0918333822282EA0CFB1C8B
:100310000C1D1D1DE482F5820683178383E0808314
:10032000248135814681578157FF1AC0C901AA2708
:1003300097FDA095BA2F81709070A070B0705695FF
:10034000479537952795822B932BA42BB52B848328
:100350009583A683B7838281938101969383828359
:10036000DF0101C0D201CD01CDB7DEB7E2E10C94CF
:100370001B15A0E2B0E0EFEBF1E00C940B156983E4
:100380007A838B839C832D833E834F835887E9E058
:10039000EE2EF12CEC0EFD1ECE010196B7010E944F
:1003A000CA048E010F5E1F4FCE010596B8010E9450
:1003B000CA048A8991E089278A8BC701B801AE01F6
:1003C000475E5F4F0E946D000E94F503A096E6E035
:1003D0000C942715A0E2B0E0E0EFF1E00C940B15CF
:1003E00069837A838B839C832D833E834F835887D5
:1003F000F9E0EF2EF12CEC0EFD1ECE010196B701B7
:100400000E94CA048E010F5E1F4FCE010596B801EF
:100410000E94CA04C701B801AE01475E5F4F0E9447
:100420006D000E94F503A096E6E00C942715A0E26B
:10043000B0E0EDE1F2E00C94FF1469837A838B83E2
:100440009C832D833E834F835887CE010196BE0146
:10045000675F7F4F0E94CA04CE010596BE016F5EA2
:100460007F4F0E94CA049985923088F08989823032
:10047000C8F0943019F4823051F404C0843029F467
:10048000923081F486EA90E0C6C0923049F420E0D0
:100490009A858A89981321E02A87CE010996BBC0E4
:1004A000823049F420E09A858A89981321E02A8BCA
:1004B000CE014196B0C02D843E844F8458886D880B
:1004C0007E888F88988CEE24FF248701AA24BB2481
:1004D000650140E050E060E070E0E0E0F0E0C10184
:1004E00081709070892BE9F0E60CF71C081D191D2E
:1004F0009A01AB012A0D3B1D4C1D5D1D80E090E073
:10050000A0E0B0E0E614F7040805190520F481E046
:1005100090E0A0E0B0E0BA01A901480F591F6A1F9E
:100520007B1FAA0CBB1CCC1CDD1C97FE08C081E005
:1005300090E0A0E0B0E0A82AB92ACA2ADB2A3196C6
:10054000E032F10549F0660C771C881C991C569422
:10055000479437942794C3CFFA85EA892B893C893D
:100560008B859C85280F391F2E5F3F4F17C0CA010E
:1005700081709070892B61F016950795F794E79438
:1005800080E090E0A0E0B0E8E82AF92A0A2B1B2BD3
:1005900076956795579547952F5F3F4F77FDE7CF46
:1005A0000CC0440F551F661F771F17FD4160EE0CEE
:1005B000FF1C001F111F21503040403090E05907B0
:1005C00090E0690790E4790760F32B8F3C8FDB01A3
:1005D000CA018F779070A070B07080349105A1052A
:1005E000B10561F447FD0AC0E114F10401051105EC
:1005F00029F0405C5F4F6F4F7F4F40781A8EFE1797
:1006000011F081E08A8F4D8F5E8F6F8F78A383E02A
:10061000898FCE0149960E94F503A096E2E10C94E1
:100620001B15A8E1B0E0E7E1F3E00C940B1569833A
:100630007A838B839C832D833E834F83588789E005
:10064000E82EF12CEC0EFD1ECE010196B7010E94A2
:10065000CA048E010F5E1F4FCE010596B8010E949D
:10066000CA048985823040F08989823028F0C70128
:10067000B8010E94420501C08FEF6896E6E00C9435
:100680002715A8E1B0E0E7E4F3E00C940B156983CB
:100690007A838B839C832D833E834F83588789E0A5
:1006A000E82EF12CEC0EFD1ECE010196B7010E9442
:1006B000CA048E010F5E1F4FCE010596B8010E943D
:1006C000CA048985823040F08989823028F0C701C8
:1006D000B8010E94420501C08FEF6896E6E00C94D5
:1006E0002715A8E1B0E0E7E7F3E00C940B15698368
:1006F0007A838B839C832D833E834F83588789E045
:10070000E82EF12CEC0EFD1ECE010196B7010E94E1
:10071000CA048E010F5E1F4FCE010596B8010E94DC
:10072000CA048985823040F08989823028F0C70167
:10073000B8010E94420501C081E06896E6E00C9491
:100740002715ACE0B0E0E7EAF3E00C940F156983FD
:100750007A838B839C83CE010196BE016B5F7F4FB2
:100760000E94CA048D81823061F1823050F1843060
:1007700021F48E81882351F12EC02F81388537FDD9
:1007800020C06E812F3131051CF06623F9F023C0A3
:100790008EE190E0821B930B29853A854B855C8521
:1007A00004C056954795379527958A95D2F76623C5
:1007B000B1F050954095309521953F4F4F4F5F4F89
:1007C0000EC020E030E040E050E009C02FEF3FEFE6
:1007D0004FEF5FE704C020E030E040E050E8B901AF
:1007E000CA012C96E2E00C942B15DF92EF92FF9257
:1007F0000F931F93FC01E480F58006811781D1805F
:100800008081823048F480E090E0A0E1B0E0E82A06
:10081000F92A0A2B1B2BA5C0843009F49FC0823013
:1008200021F4EE24FF24870105C0E114F104010541
:10083000110519F4E0E0F0E096C0628173819FEF4A
:10084000623879070CF05BC022E83FEF261B370BBC
:100850002A3131052CF020E030E040E050E02AC0A1
:10086000B801A701022E04C0769567955795479564
:100870000A94D2F781E090E0A0E0B0E004C0880FD5
:10088000991FAA1FBB1F2A95D2F70197A109B10989
:100890008E219F21A023B1230097A105B10521F04E
:1008A00081E090E0A0E0B0E09A01AB01282B392B69
:1008B0004A2B5B2BDA01C9018F779070A070B07062
:1008C00080349105A105B10539F427FF09C0205CEA
:1008D0003F4F4F4F5F4F04C0215C3F4F4F4F5F4F23
:1008E000E0E0F0E02030A0E03A07A0E04A07A0E412
:1008F0005A0710F0E1E0F0E079018A0127C0603882
:10090000710564F5FB01E158FF4FD801C7018F77EE
:100910009070A070B07080349105A105B10539F4D4
:10092000E7FE0DC080E490E0A0E0B0E004C08FE3FB
:1009300090E0A0E0B0E0E80EF91E0A1F1B1F17FFB1
:1009400005C016950795F794E794319687E01695BC
:100950000795F794E7948A95D1F705C0EE24FF2414
:100960008701EFEFF0E06E2F679566276795902F70
:100970009F77D794DD24D7948E2F8695492F462BC9
:10098000582F5D29B701CA011F910F91FF90EF9079
:10099000DF900895FC01DB01408151812281622FAB
:1009A0006F7770E0221F2227221F9381892F880FE3
:1009B000822B282F30E0991F9927991F11969C931D
:1009C000119721153105A9F54115510561057105ED
:1009D00011F482E037C082E89FEF13969C938E93C8
:1009E00012979A01AB0167E0220F331F441F551F76
:1009F0006A95D1F783E08C930DC0220F331F441FFB
:100A0000551F12968D919C911397019713969C9365
:100A10008E931297203080E0380780E0480780E40A
:100A2000580758F314962D933D934D935C93179765
:100A300008952F3F310579F4411551056105710580
:100A400019F484E08C93089564FF03C081E08C93D3
:100A500012C01C9210C02F57304013963C932E9317
:100A6000129783E08C9387E0440F551F661F771F12
:100A70008A95D1F7706414964D935D936D937C9332
:100A8000179708951F93DC01FB019C91923008F4A5
:100A900047C08081823008F443C0943051F41196ED
:100AA0001C91843099F58181682F70E0611B710978
:100AB0003FC0843021F0923031F48230B9F181812D
:100AC000882389F12DC011961C9111978230F1F085
:100AD00081811817D9F412962D913C911397828138
:100AE00093818217930794F028173907BCF0149666
:100AF0008D919D910D90BC91A02D248135814681D1
:100B00005781281739074A075B0718F4112341F06A
:100B10000AC082179307A407B50740F4112319F000
:100B200061E070E005C06FEF7FEF02C060E070E051
:100B3000CB011F910895DF93CF9300D000D0CDB7A4
:100B4000DEB789836A838981282F30E03C832B8339
:100B50008B819C8181309105D1F02B813C812230A9
:100B600031052CF48B819C81009761F01EC02B8194
:100B70003C812230310581F08B819C81833091054D
:100B800081F013C0EAE3F0E08A8180830EC0E7E3DE
:100B9000F0E08A81808309C0E4E3F0E08A81808309
:100BA00004C0E1E3F0E08A8180830F900F900F9002
:100BB0000F90CF91DF910895DF93CF9300D000D0B5
:100BC000CDB7DEB789836A838981282F30E03C83E3
:100BD0002B838B819C8181309105D1F02B813C81CD
:100BE000223031052CF48B819C81009761F01EC06E
:100BF0002B813C812230310581F08B819C818330B7
:100C0000910581F013C0EBE3F0E08A8180830EC090
:100C1000E8E3F0E08A81808309C0E5E3F0E08A81BF
:100C2000808304C0E2E3F0E08A8180830F900F901C
:100C30000F900F90CF91DF910895DF93CF9300D065
:100C400000D0CDB7DEB78A8319828A81282F30E0A1
:100C50003C832B838B819C8181309105D1F02B814A
:100C60003C81223031052CF48B819C81009761F00E
:100C70001EC02B813C812230310581F08B819C810B
:100C80008330910581F013C0E9E3F0E0808189832E
:100C90000EC0E6E3F0E08081898309C0E3E3F0E081
:100CA0008081898304C0E0E3F0E0808189838981C9
:100CB0000F900F900F900F90CF91DF910895DF93D9
:100CC000CF93CDB7DEB729970FB6F894DEBF0FBE2E
:100CD000CDBF89836A834B838B81882309F06FC0E2
:100CE0008981282F30E03987288788859985813048
:100CF000910549F128853985223031052CF4888504
:100D00009985009761F0E2C1288539852230310547
:100D100071F18885998583309105E9F1D7C1AAE3FE
:100D2000B0E0EAE3F0E08081482F8A81282F30E0AC
:100D300081E090E0022E02C0880F991F0A94E2F72A
:100D4000842B8C93C3C1A7E3B0E0E7E3F0E080819C
:100D5000482F8A81282F30E081E090E0022E02C0E7
:100D6000880F991F0A94E2F7842B8C93AFC1A4E3F8
:100D7000B0E0E4E3F0E08081482F8A81282F30E062
:100D800081E090E0022E02C0880F991F0A94E2F7DA
:100D9000842B8C939BC1A1E3B0E0E1E3F0E0808180
:100DA000482F8A81282F30E081E090E0022E02C097
:100DB000880F991F0A94E2F7842B8C9387C18B814B
:100DC000813009F0C2C08981282F30E03F832E8313
:100DD0008E819F818130910509F43FC02E813F8132
:100DE000223031052CF48E819F81009771F06EC105
:100DF0002E813F812230310509F457C08E819F81B9
:100E00008330910509F479C061C1AAE3B0E0EAE357
:100E1000F0E08081482F8A81282F30E081E090E047
:100E200002C0880F991F2A95E2F7809584238C933E
:100E3000ABE3B0E0EBE3F0E08081482F8A81282F1C
:100E400030E081E090E0022E02C0880F991F0A94E2
:100E5000E2F7809584238C9339C1A7E3B0E0E7E300
:100E6000F0E08081482F8A81282F30E081E090E0F7
:100E700002C0880F991F2A95E2F7809584238C93EE
:100E8000A8E3B0E0E8E3F0E08081482F8A81282FD2
:100E900030E081E090E0022E02C0880F991F0A9492
:100EA000E2F7809584238C9311C1A4E3B0E0E4E3DE
:100EB000F0E08081482F8A81282F30E081E090E0A7
:100EC00002C0880F991F2A95E2F7809584238C939E
:100ED000A5E3B0E0E5E3F0E08081482F8A81282F88
:100EE00030E081E090E0022E02C0880F991F0A9442
:100EF000E2F7809584238C93E9C0A1E3B0E0E1E3BD
:100F0000F0E08081482F8A81282F30E081E090E056
:100F100002C0880F991F2A95E2F7809584238C934D
:100F2000A2E3B0E0E2E3F0E08081482F8A81282F3D
:100F300030E081E090E0022E02C0880F991F0A94F1
:100F4000E2F7809584238C93C1C08B81823009F0B5
:100F5000BDC08981282F30E03D832C838C819D8109
:100F60008130910509F43EC02C813D81223031054C
:100F70002CF48C819D81009771F0A8C02C813D815B
:100F80002230310509F455C08C819D818330910553
:100F900009F476C09BC0AAE3B0E0EAE3F0E0808108
:100FA000482F8A81282F30E081E090E002C0880F2E
:100FB000991F2A95E2F7809584238C93ABE3B0E0E8
:100FC000EBE3F0E08081482F8A81282F30E081E038
:100FD00090E0022E02C0880F991F0A94E2F7842B3A
:100FE0008C9374C0A7E3B0E0E7E3F0E08081482F82
:100FF0008A81282F30E081E090E002C0880F991F9D
:101000002A95E2F7809584238C93A8E3B0E0E8E387
:10101000F0E08081482F8A81282F30E081E090E045
:10102000022E02C0880F991F0A94E2F7842B8C933A
:101030004DC0A4E3B0E0E4E3F0E08081482F8A8172
:10104000282F30E081E090E002C0880F991F2A9598
:10105000E2F7809584238C93A5E3B0E0E5E3F0E02C
:101060008081482F8A81282F30E081E090E0022E95
:1010700002C0880F991F0A94E2F7842B8C9326C034
:10108000A1E3B0E0E1E3F0E08081482F8A81282FDE
:1010900030E081E090E002C0880F991F2A95E2F7C6
:1010A000809584238C93A2E3B0E0E2E3F0E08081BA
:1010B000482F8A81282F30E081E090E0022E02C084
:1010C000880F991F0A94E2F7842B8C9329960FB608
:1010D000F894DEBF0FBECDBFCF91DF910895DF93AF
:1010E000CF93CDB7DEB727970FB6F894DEBF0FBE0C
:1010F000CDBF89836A834B838B81813009F06FC0B8
:101100008981282F30E03F832E838E819F8181301B
:10111000910549F12E813F81223031052CF48E81D9
:101120009F81009761F0D2C02E813F81223031052E
:1011300071F18E819F8183309105E9F1C7C0ABE3E6
:10114000B0E0EBE3F0E08081482F8A81282F30E087
:1011500081E090E0022E02C0880F991F0A94E2F706
:10116000842B8C93B3C0A8E3B0E0E8E3F0E0808187
:10117000482F8A81282F30E081E090E0022E02C0C3
:10118000880F991F0A94E2F7842B8C939FC0A5E3E4
:10119000B0E0E5E3F0E08081482F8A81282F30E03D
:1011A00081E090E0022E02C0880F991F0A94E2F7B6
:1011B000842B8C938BC0A2E3B0E0E2E3F0E080816B
:1011C000482F8A81282F30E081E090E0022E02C073
:1011D000880F991F0A94E2F7842B8C9377C08B8138
:1011E000882309F073C08981282F30E03D832C8348
:1011F0008C819D818130910559F12C813D81223076
:1012000031052CF48C819D81009769F05FC02C81A1
:101210003D812230310589F18C819D81833091059A
:1012200009F440C053C0ABE3B0E0EBE3F0E08081F1
:10123000482F8A81282F30E081E090E0022E02C002
:10124000880F991F0A94E2F7809584238C933EC0FF
:10125000A8E3B0E0E8E3F0E08081482F8A81282FFE
:1012600030E081E090E0022E02C0880F991F0A94BE
:10127000E2F7809584238C9329C0A5E3B0E0E5E3F1
:10128000F0E08081482F8A81282F30E081E090E0D3
:10129000022E02C0880F991F0A94E2F780958423DA
:1012A0008C9314C0A2E3B0E0E2E3F0E08081482F29
:1012B0008A81282F30E081E090E0022E02C0880F62
:1012C000991F0A94E2F7809584238C9327960FB692
:1012D000F894DEBF0FBECDBFCF91DF910895DF93AD
:1012E000CF9300D000D00F92CDB7DEB78A836B8347
:1012F00081E089838A81282F30E03D832C834C81D3
:101300005D814130510509F43CC08C819D81823062
:10131000910534F42C813D812115310571F09CC07B
:101320004C815D814230510509F44FC08C819D8113
:101330008330910509F46DC08FC0ABE3B0E0EBE3FF
:10134000F0E08081482F8B81282F30E081E090E011
:1013500002C0880F991F2A95E2F784278C93EBE34C
:10136000F0E08081282F30E08B81882F90E0A90168
:1013700002C0559547958A95E2F7CA018170898325
:101380006BC0A8E3B0E0E8E3F0E08081482F8B81F8
:10139000282F30E081E090E002C0880F991F2A9545
:1013A000E2F784278C93E8E3F0E08081282F30E097
:1013B0008B81882F90E0A90102C0559547958A95A9
:1013C000E2F7CA018170898347C0A5E3B0E0E5E395
:1013D000F0E08081482F8B81282F30E081E090E081
:1013E00002C0880F991F2A95E2F784278C93E5E3C2
:1013F000F0E08081282F30E08B81882F90E0A901D8
:1014000002C0559547958A95E2F7CA018170898394
:1014100023C0A2E3B0E0E2E3F0E08081482F8B81BB
:10142000282F30E081E090E002C0880F991F2A95B4
:10143000E2F784278C93E2E3F0E08081282F30E00C
:101440008B81882F90E0A90102C0559547958A9518
:10145000E2F7CA018170898389810F900F900F9004
:101460000F900F90CF91DF910895DF93CF9300D02D
:1014700000D0CDB7DEB789836A838981282F30E019
:101480003C832B838B819C818130910549F12B8199
:101490003C81223031052CF48B819C81009761F0D6
:1014A0005AC02B813C812230310571F18B819C81A6
:1014B00083309105E9F14FC0ABE3B0E0EBE3F0E03E
:1014C0008081482F8A81282F30E081E090E0022E31
:1014D00002C0880F991F0A94E2F784278C933BC0BF
:1014E000A8E3B0E0E8E3F0E08081482F8A81282F6C
:1014F00030E081E090E0022E02C0880F991F0A942C
:10150000E2F784278C9327C0A5E3B0E0E5E3F0E0A1
:101510008081482F8A81282F30E081E090E0022EE0
:1015200002C0880F991F0A94E2F784278C9313C096
:10153000A2E3B0E0E2E3F0E08081482F8A81282F27
:1015400030E081E090E0022E02C0880F991F0A94DB
:10155000E2F784278C930F900F900F900F90CF910C
:10156000DF910895DF93CF9300D000D00F92CDB7D5
:10157000DEB78A836B8319828A81282F30E03D830E
:101580002C834C815D814130510571F18C819D81AD
:101590008230910534F42C813D812115310569F0AB
:1015A00064C04C815D8142305105A1F18C819D81E7
:1015B0008330910509F444C058C0E9E3F0E080812C
:1015C000282F30E08B81882F90E0A90102C055952B
:1015D00047958A95E2F7CA0181709070882309F4D3
:1015E00044C081E0898341C0E6E3F0E08081282F98
:1015F00030E08B81882F90E0A90102C05595479576
:101600008A95E2F7CA0181709070882371F181E0B8
:1016100089832BC0E3E3F0E08081282F30E08B81C9
:10162000882F90E0A90102C0559547958A95E2F769
:10163000CA01817090708823C1F081E0898315C050
:10164000E0E3F0E08081282F30E08B81882F90E06C
:10165000A90102C0559547958A95E2F7CA018170A4
:101660009070882311F081E0898389810F900F9019
:101670000F900F900F90CF91DF910895DF93CF934C
:10168000CDB7DEB781E063E042E00E945F0681E013
:1016900064E042E00E945F0681E065E042E00E9473
:1016A0005F0681E066E042E00E945F0681E060E064
:1016B00040E00E945F0681E061E040E00E945F063A
:1016C00081E062E040E00E945F0681E060E041E08E
:1016D0000E946F0881E061E041E00E946F0881E0B4
:1016E00062E041E00E946F08CF91DF910895DF939F
:1016F000CF93CDB7DEB762970FB6F894DEBF0FBEBB
:10170000CDBF8A8B198A8A8993E0692F0E94F314CE
:10171000888B8A8993E0692F0E94F314892F8F8721
:101720008F8560E00E94210C88890E94540C8823D8
:1017300009F079C080E090E0A0EAB0E48B879C8754
:10174000AD87BE876B857C858D859E8520E030E0EA
:101750004AEF54E40E941702DC01CB018F83988783
:10176000A987BA876F81788589859A8520E030E0DE
:1017700040E85FE30E94710388232CF481E090E04D
:101780009E838D833FC06F81788589859A8520E00F
:101790003FEF4FE757E40E94110318164CF56B8595
:1017A0007C858D859E8520E030E040E251E40E94FA
:1017B0001702DC01CB01BC01CD010E944100DC011C
:1017C000CB019E838D830FC088EC90E09C838B833C
:1017D0008B819C810197F1F79C838B838D819E8106
:1017E00001979E838D838D819E81009769F714C038
:1017F0006F81788589859A850E944100DC01CB0143
:101800009E838D838D819E819A83898389819A812C
:101810000197F1F79A83898388890E94540C882361
:1018200011F481E0898B8F8561E00E94210C898908
:1018300062960FB6F894DEBF0FBECDBFCF91DF9199
:101840000895DF93CF9300D000D0CDB7DEB7898362
:101850006A838981282F30E03C832B838B819C8194
:101860008130910579F02B813C812230310581F066
:101870008B819C81009789F481E060E04A810E941D
:101880006F080BC081E061E04A810E946F0805C0CB
:1018900081E062E04A810E946F080F900F900F90E4
:1018A0000F90CF91DF910895DF93CF9300D000D0B8
:1018B000CDB7DEB78A8381E089838A81282F30E023
:1018C0003C832B838B819C8181309105D9F02B81C6
:1018D0003C81223031052CF48B819C81009761F092
:1018E00022C02B813C812230310591F08B819C817B
:1018F0008330910599F017C081E063E00E94B20A3D
:10190000898311C081E064E00E94B20A89830BC020
:1019100081E065E00E94B20A898305C081E066E04B
:101920000E94B20A898389810F900F900F900F90C7
:10193000CF91DF910895DF93CF9300D0CDB7DEB77D
:101940008CE089831A820BC08A810E94770B8130D8
:1019500019F48A81898306C08A818F5F8A838A818C
:101960008C3090F389810F900F90CF91DF91089583
:10197000DF93CF9300D000D0CDB7DEB70E949B0C91
:101980008A8319828A81282F30E03C832B838B81C4
:101990009C818530910509F459C02B813C8126300A
:1019A000310504F58B819C818230910509F445C095
:1019B0002B813C812330310554F48B819C8100972D
:1019C000B1F12B813C8121303105A1F153C08B81D4
:1019D0009C8183309105A1F12B813C81243031051C
:1019E00091F148C08B819C8188309105C1F12B8198
:1019F0003C81293031055CF48B819C8186309105D6
:101A000041F12B813C812730310531F133C08B818D
:101A10009C818A30910549F12B813C812A30310526
:101A20000CF18B819C818B30910511F123C081E3F6
:101A3000898320C082E389831DC083E389831AC020
:101A400084E3898317C085E3898314C086E389838F
:101A500011C087E389830EC088E389830BC089E3C3
:101A6000898308C08AE2898305C080E3898302C034
:101A700083E2898389810F900F900F900F90CF910F
:101A8000DF910895DF93CF93CDB7DEB7E9970FB617
:101A9000F894DEBF0FBECDBF89AF82E065E040E0C5
:101AA0000E946F0882E066E040E00E946F0880E0DC
:101AB00090E0A0E8BFE38DAB9EABAFABB8AF6DA934
:101AC0007EA98FA998AD20E030E04AEF54E40E944F
:101AD0001702DC01CB0189AB9AABABABBCAB69A9FC
:101AE0007AA98BA99CA920E030E040E85FE30E943E
:101AF000710388232CF481E090E098AB8FA73FC05E
:101B000069A97AA98BA99CA920E03FEF4FE757E488
:101B10000E94110318164CF56DA97EA98FA998ADE6
:101B200020E030E040E251E40E941702DC01CB01EA
:101B3000BC01CD010E944100DC01CB0198AB8FA715
:101B40000FC088EC90E09EA78DA78DA59EA501975C
:101B5000F1F79EA78DA78FA598A9019798AB8FA79E
:101B60008FA598A9009769F714C069A97AA98BA9CC
:101B70009CA90E944100DC01CB0198AB8FA78FA5E7
:101B800098A99CA78BA78BA59CA50197F1F79CA76B
:101B90008BA782E067E041E00E946F0880E090E060
:101BA000A0E8BFE38FA398A7A9A7BAA76FA178A5BC
:101BB00089A59AA520E030E04AEF54E40E9417027C
:101BC000DC01CB018BA39CA3ADA3BEA36BA17CA125
:101BD0008DA19EA120E030E040E85FE30E94710308
:101BE00088232CF481E090E09AA389A33FC06BA1E5
:101BF0007CA18DA19EA120E03FEF4FE757E40E941A
:101C0000110318164CF56FA178A589A59AA520E0B7
:101C100030E040E251E40E941702DC01CB01BC013C
:101C2000CD010E944100DC01CB019AA389A30FC022
:101C300088EC90E098A38F8F8F8D98A10197F1F792
:101C400098A38F8F89A19AA101979AA389A389A1AB
:101C50009AA1009769F714C06BA17CA18DA19EA1E8
:101C60000E944100DC01CB019AA389A389A19AA11A
:101C70009E8F8D8F8D8D9E8D0197F1F79E8F8D8F0D
:101C800089AD982F917083E060E0492F0E946F0822
:101C900089AD8695982F917083E061E0492F0E946D
:101CA0006F0889AD86958695982F917083E062E0E4
:101CB000492F0E946F0889AD869586958695982F45
:101CC000917083E063E0492F0E946F0889AD82958F
:101CD0008F70982F917083E064E0492F0E946F0805
:101CE00089AD829586958770982F917083E065E025
:101CF000492F0E946F0889AD8295869586958370DD
:101D0000982F917083E066E0492F0E946F0889AD9B
:101D1000982F991F9927991F83E067E0492F0E9408
:101D20006F0880E090E0A0E8BFE3898F9A8FAB8FC7
:101D3000BC8F698D7A8D8B8D9C8D20E030E04AEFD1
:101D400054E40E941702DC01CB018D8B9E8BAF8B7C
:101D5000B88F6D897E898F89988D20E030E040E8CA
:101D60005FE30E94710388232CF481E090E09C8B58
:101D70008B8B3FC06D897E898F89988D20E03FEFE6
:101D80004FE757E40E94110318164CF5698D7A8DC0
:101D90008B8D9C8D20E030E040E251E40E941702E0
:101DA000DC01CB01BC01CD010E944100DC01CB0173
:101DB0009C8B8B8B0FC088EC90E09A8B898B8989E8
:101DC0009A890197F1F79A8B898B8B899C89019766
:101DD0009C8B8B8B8B899C89009769F714C06D89CC
:101DE0007E898F89988D0E944100DC01CB019C8BFC
:101DF0008B8B8B899C89988B8F878F85988901978E
:101E0000F1F7988B8F8782E067E040E00E946F08CF
:101E100080E090E0A0E8BFE38B879C87AD87BE871A
:101E20006B857C858D859E8520E030E04AEF54E40B
:101E30000E941702DC01CB018F839887A987BA879C
:101E40006F81788589859A8520E030E040E85FE3FE
:101E50000E94710388232CF481E090E09E838D839F
:101E60003FC06F81788589859A8520E03FEF4FE7F5
:101E700057E40E94110318164CF56B857C858D85FF
:101E80009E8520E030E040E251E40E941702DC0130
:101E9000CB01BC01CD010E944100DC01CB019E833E
:101EA0008D830FC088EC90E09C838B838B819C8119
:101EB0000197F1F79C838B838D819E8101979E838F
:101EC0008D838D819E81009769F714C06F8178851D
:101ED00089859A850E944100DC01CB019E838D8318
:101EE0008D819E819A83898389819A810197F1F7F7
:101EF0009A838983E9960FB6F894DEBF0FBECDBFF3
:101F0000CF91DF910895DF93CF93CDB7DEB7E997F7
:101F10000FB6F894DEBF0FBECDBF89AF82E065E09B
:101F200041E00E946F0882E066E040E00E946F0896
:101F300080E090E0A0E8BFE38DAB9EABAFABB8AF65
:101F40006DA97EA98FA998AD20E030E04AEF54E456
:101F50000E941702DC01CB0189AB9AABABABBCABE7
:101F600069A97AA98BA99CA920E030E040E85FE349
:101F70000E94710388232CF481E090E098AB8FA736
:101F80003FC069A97AA98BA99CA920E03FEF4FE740
:101F900057E40E94110318164CF56DA97EA98FA96C
:101FA00098AD20E030E040E251E40E941702DC01ED
:101FB000CB01BC01CD010E944100DC01CB0198ABFB
:101FC0008FA70FC088EC90E09EA78DA78DA59EA53A
:101FD0000197F1F79EA78DA78FA598A9019798ABB8
:101FE0008FA78FA598A9009769F714C069A97AA946
:101FF0008BA99CA90E944100DC01CB0198AB8FA763
:102000008FA598A99CA78BA78BA59CA50197F1F7F5
:102010009CA78BA782E067E041E00E946F0880E008
:1020200090E0A0E8BFE38FA398A7A9A7BAA76FA1E4
:1020300078A589A59AA520E030E04AEF54E40E94F3
:102040001702DC01CB018BA39CA3ADA3BEA36BA1A4
:102050007CA18DA19EA120E030E040E85FE30E94DA
:10206000710388232CF481E090E09AA389A33FC0F8
:102070006BA17CA18DA19EA120E03FEF4FE757E42B
:102080000E94110318164CF56FA178A589A59AA591
:1020900020E030E040E251E40E941702DC01CB0175
:1020A000BC01CD010E944100DC01CB019AA389A3B0
:1020B0000FC088EC90E098A38F8F8F8D98A1019727
:1020C000F1F798A38F8F89A19AA101979AA389A369
:1020D00089A19AA1009769F714C06BA17CA18DA179
:1020E0009EA10E944100DC01CB019AA389A389A192
:1020F0009AA19E8F8D8F8D8D9E8D0197F1F79E8F6A
:102100008D8F89AD982F917083E060E0492F0E94F8
:102110006F0889AD8695982F917083E061E0492F13
:102120000E946F0889AD86958695982F917083E0FF
:1021300062E0492F0E946F0889AD86958695869545
:10214000982F917083E063E0492F0E946F0889AD5A
:1021500082958F70982F917083E064E0492F0E94E0
:102160006F0889AD829586958770982F917083E06E
:1021700065E0492F0E946F0889AD82958695869506
:102180008370982F917083E066E0492F0E946F085A
:1021900089AD982F991F9927991F83E067E0492FF0
:1021A0000E946F0880E090E0A0E8BFE3898F9A8FDB
:1021B000AB8FBC8F698D7A8D8B8D9C8D20E030E04C
:1021C0004AEF54E40E941702DC01CB018D8B9E8BF9
:1021D000AF8BB88F6D897E898F89988D20E030E034
:1021E00040E85FE30E94710388232CF481E090E0D3
:1021F0009C8B8B8B3FC06D897E898F89988D20E069
:102200003FEF4FE757E40E94110318164CF5698D14
:102210007A8D8B8D9C8D20E030E040E251E40E946D
:102220001702DC01CB01BC01CD010E944100DC01A1
:10223000CB019C8B8B8B0FC088EC90E09A8B898BA9
:1022400089899A890197F1F79A8B898B8B899C8967
:1022500001979C8B8B8B8B899C89009769F714C0A5
:102260006D897E898F89988D0E944100DC01CB01A8
:102270009C8B8B8B8B899C89988B8F878F8598897A
:102280000197F1F7988B8F8782E067E040E00E942A
:102290006F0880E090E0A0E8BFE38B879C87AD8764
:1022A000BE876B857C858D859E8520E030E04AEF7A
:1022B00054E40E941702DC01CB018F839887A98721
:1022C000BA876F81788589859A8520E030E040E87B
:1022D0005FE30E94710388232CF481E090E09E83E9
:1022E0008D833FC06F81788589859A8520E03FEF97
:1022F0004FE757E40E94110318164CF56B857C8557
:102300008D859E8520E030E040E251E40E94170276
:10231000DC01CB01BC01CD010E944100DC01CB01FD
:102320009E838D830FC088EC90E09C838B838B8190
:102330009C810197F1F79C838B838D819E8101970E
:102340009E838D838D819E81009769F714C06F8174
:10235000788589859A850E944100DC01CB019E83A6
:102360008D838D819E819A83898389819A8101974A
:10237000F1F79A838983E9960FB6F894DEBF0FBE12
:10238000CDBFCF91DF910895DF93CF93CDB7DEB767
:1023900082E067E040E00E945F0682E065E040E0A6
:1023A0000E945F0682E066E040E00E945F0683E0F4
:1023B00060E040E00E945F0683E061E040E00E9450
:1023C0005F0683E062E040E00E945F0683E063E036
:1023D00040E00E945F0683E064E040E00E945F0608
:1023E00083E065E040E00E945F0683E066E040E055
:1023F0000E945F0683E067E040E00E945F06CF91A5
:10240000DF910895DF93CF93CDB7DEB72E970FB648
:10241000F894DEBF0FBECDBF80E090E0A0E2B2E452
:102420008B879C87AD87BE876B857C858D859E85D8
:1024300020E030E04AEF54E40E941702DC01CB01B7
:102440008F839887A987BA876F81788589859A85D0
:1024500020E030E040E85FE30E94710388232CF421
:1024600081E090E09E838D833FC06F817885898570
:102470009A8520E03FEF4FE757E40E9411031816BA
:102480004CF56B857C858D859E8520E030E040E2B3
:1024900051E40E941702DC01CB01BC01CD010E9476
:1024A0004100DC01CB019E838D830FC088EC90E05E
:1024B0009C838B838B819C810197F1F79C838B8319
:1024C0008D819E8101979E838D838D819E81009752
:1024D00069F714C06F81788589859A850E944100CB
:1024E000DC01CB019E838D838D819E819A838983BC
:1024F00089819A810197F1F79A83898388E30E9401
:10250000420D8CE00E94420D81E00E94420D2E9609
:102510000FB6F894DEBF0FBECDBFCF91DF91089507
:10252000DF93CF93CDB7DEB781E00E94420DCF910C
:10253000DF910895DF93CF9300D00F92CDB7DEB730
:102540009B838A8319820AC0EA81FB8180810E9471
:10255000830F8A819B8101969B838A838981282F9F
:1025600030E08A819B81FC01E20FF31F8081882388
:1025700059F70F900F900F90CF91DF910895DF934F
:10258000CF9300D000D00F92CDB7DEB78A836B8394
:102590008A81282F30E03D832C838C819D8181307E
:1025A000910531F02C813D812230310521F006C0AA
:1025B0008B81898303C08B81805C8983898180586A
:1025C0000E94420D0F900F900F900F900F90CF919F
:1025D000DF910895DF93CF93CDB7DEB766970FB63F
:1025E000F894DEBF0FBECDBF9E8B8D8B80E690E052
:1025F0000E949A121F8689C00E94B80C888B888915
:10260000882309F482C088890E94830F8F85282F30
:1026100030E0CE014196FC01E20FF31F88898083F0
:1026200080E090E0AAEFB3E48B879C87AD87BE87FC
:102630006B857C858D859E8520E030E04AEF54E4F3
:102640000E941702DC01CB018F839887A987BA8784
:102650006F81788589859A8520E030E040E85FE3E6
:102660000E94710388232CF481E090E09E838D8387
:102670003FC06F81788589859A8520E03FEF4FE7DD
:1026800057E40E94110318164CF56B857C858D85E7
:102690009E8520E030E040E251E40E941702DC0118
:1026A000CB01BC01CD010E944100DC01CB019E8326
:1026B0008D830FC088EC90E09C838B838B819C8101
:1026C0000197F1F79C838B838D819E8101979E8377
:1026D0008D838D819E81009769F714C06F81788505
:1026E00089859A850E944100DC01CB019E838D8300
:1026F0008D819E819A83898389819A810197F1F7DF
:102700009A8389838F858F5F8F878F85843009F0C7
:1027100073CF8D899E899E012F5E3F4FB9010E9424
:102720009A1366960FB6F894DEBF0FBECDBFCF9159
:10273000DF910895DF93CF9300D000D000D0CDB7C4
:10274000DEB79C838B837E836D8381E08A831982CD
:102750001BC08981282F30E08B819C81FC01E20F16
:10276000F31F40818981282F30E08D819E81FC01FB
:10277000E20FF31F8081481721F08A8181508A83FC
:1027800006C089818F5F89838981843010F38A81B3
:1027900026960FB6F894DEBF0FBECDBFCF91DF9166
:1027A0000895DF93CF93CDB7DEB76D970FB6F8944A
:1027B000DEBF0FBECDBF0E94C4110E9402120E9454
:1027C0003E0B8DE690E00E949A1280E090E8ABE329
:1027D000B5E4898F9A8FAB8FBC8F698D7A8D8B8D85
:1027E0009C8D20E030E04AEF54E40E941702DC01A7
:1027F000CB018D8B9E8BAF8BB88F6D897E898F8936
:10280000988D20E030E040E85FE30E947103882368
:102810002CF481E090E09C8B8B8B3FC06D897E898E
:102820008F89988D20E03FEF4FE757E40E94110316
:1028300018164CF5698D7A8D8B8D9C8D20E030E0DB
:1028400040E251E40E941702DC01CB01BC01CD0142
:102850000E944100DC01CB019C8B8B8B0FC088EC6C
:1028600090E09A8B898B89899A890197F1F79A8BE5
:10287000898B8B899C8901979C8B8B8B8B899C89FD
:10288000009769F714C06D897E898F89988D0E94A1
:102890004100DC01CB019C8B8B8B8B899C89988BB5
:1028A0008F878F8598890197F1F7988B8F870E9482
:1028B00090128EEA90E00E94EA128D8F8D8D813009
:1028C00079F40E9490128DE790E00E949A126D9622
:1028D0000FB6F894DEBF0FBECDBFCF91DF91089544
:1028E0000E9490128AE890E00E949A1282E060E0D2
:1028F0000E94BF1289E990E00E949A1280E090E065
:10290000AAE7B4E48B879C87AD87BE876B857C85FF
:102910008D859E8520E030E04AEF54E40E94170246
:10292000DC01CB018F839887A987BA876F8178856F
:1029300089859A8520E030E040E85FE30E947103DA
:1029400088232CF481E090E09E838D833FC06F81CB
:10295000788589859A8520E03FEF4FE757E40E940C
:10296000110318164CF56B857C858D859E8520E0BE
:1029700030E040E251E40E941702DC01CB01BC01CF
:10298000CD010E944100DC01CB019E838D830FC0ED
:1029900088EC90E09C838B838B819C810197F1F77D
:1029A0009C838B838D819E8101979E838D838D81F6
:1029B0009E81009769F714C06F81788589859A8513
:1029C0000E944100DC01CB019E838D838D819E811D
:1029D0009A83898389819A810197F1F79A83898300
:1029E0000E94901266CF991B79E004C0991F961738
:1029F00008F0961B881F7A95C9F7809508952F9245
:102A00003F924F925F926F927F928F929F92AF927E
:102A1000BF92CF92DF92EF92FF920F931F93CF93CB
:102A2000DF93CDB7DEB7CA1BDB0B0FB6F894DEBF62
:102A30000FBECDBF09942A88398848885F846E8488
:102A40007D848C849B84AA84B984C884DF80EE80D2
:102A5000FD800C811B81AA81B981CE0FD11D0FB6DB
:102A6000F894DEBF0FBECDBFED010895F894FFCFFF
:102A7000456E74657220506173733A200053454C63
:102A800045454D2050524F2E20434F2E0057656C28
:102A9000636F6D6520536972210057726F6E6720F6
:102AA00070617373776F726400547279204167614B
:102AB000696E2E2E2E00000000000000000036344B
:022AC0003736A7
:00000001FF
